:100000000C942A000C943F000C943F000C943F0089
:100010000C943F000C943F000C943F000C943F0064
:100020000C943F000C943F000C943F000C943F0054
:100030000C943F000C943F000C943F000C943F0044
:100040000C943F000C943F000C943F000C943F0034
:100050000C943F0011241FBECFE5D4E0DEBFCDBF1E
:1000600010E0A0E6B0E0EAECF1E002C005900D92ED
:10007000A037B107D9F70E94CF000C94E3000C948D
:10008000000028B32F70982F907F922B98BBC29AB4
:10009000C29830E1839FC0011124822B88BBC29A91
:1000A000C29808958FEF87BB87BBC098C198C2984C
:1000B000C29AC59AC2982FEF80E792E02150804003
:1000C0009040E1F700C0000088E20E9441002FEF5D
:1000D00080E792E0215080409040E1F700C00000AE
:1000E000C0988EE00E9441002FEF80E792E02150FF
:1000F00080409040E1F700C00000C09886E00E9478
:1001000041002FEF80E792E0215080409040E1F7DE
:1001100000C000000895C09881E00E9441002FEFC8
:1001200080E792E0215080409040E1F700C000005D
:100130000895C09820E4829F600D1124862F815C71
:100140000E9441008FEF90E722E0815090402040D4
:10015000E1F700C000000895C09A0E9441002FEF0F
:1001600080E792E0215080409040E1F700C000001D
:1001700008950F931F93CF93FC018081882359F03A
:100180008F01C0E00E94AC00CF5FF801EC0FF11DC1
:1001900080818111F7CFCF911F910F9108950E9417
:1001A00052000E948B0067E081E00E94990088E580
:1001B0000E94AC0061E082E00E94990080E690E03D
:0A01C0000E94B900FFCFF894FFCFB2
:1001CA00496E7075745F615F737472696E6721003E
:00000001FF
